{"abi":[{"type":"constructor","inputs":[],"stateMutability":"nonpayable"},{"type":"function","name":"allowance","inputs":[{"name":"","type":"address","internalType":"address"},{"name":"","type":"address","internalType":"address"}],"outputs":[{"name":"","type":"uint256","internalType":"uint256"}],"stateMutability":"view"},{"type":"function","name":"approve","inputs":[{"name":"spender","type":"address","internalType":"address"},{"name":"amount","type":"uint256","internalType":"uint256"}],"outputs":[{"name":"","type":"bool","internalType":"bool"}],"stateMutability":"nonpayable"},{"type":"function","name":"balanceOf","inputs":[{"name":"","type":"address","internalType":"address"}],"outputs":[{"name":"","type":"uint256","internalType":"uint256"}],"stateMutability":"view"},{"type":"function","name":"burn","inputs":[{"name":"amount","type":"uint256","internalType":"uint256"}],"outputs":[],"stateMutability":"nonpayable"},{"type":"function","name":"burnLP","inputs":[{"name":"from","type":"address","internalType":"address"},{"name":"amount","type":"uint256","internalType":"uint256"}],"outputs":[],"stateMutability":"nonpayable"},{"type":"function","name":"decimals","inputs":[],"outputs":[{"name":"","type":"uint8","internalType":"uint8"}],"stateMutability":"view"},{"type":"function","name":"mint","inputs":[{"name":"to","type":"address","internalType":"address"},{"name":"amount","type":"uint256","internalType":"uint256"}],"outputs":[],"stateMutability":"nonpayable"},{"type":"function","name":"mintLP","inputs":[{"name":"to","type":"address","internalType":"address"},{"name":"amount","type":"uint256","internalType":"uint256"}],"outputs":[],"stateMutability":"nonpayable"},{"type":"function","name":"minter","inputs":[],"outputs":[{"name":"","type":"address","internalType":"address"}],"stateMutability":"view"},{"type":"function","name":"name","inputs":[],"outputs":[{"name":"","type":"string","internalType":"string"}],"stateMutability":"view"},{"type":"function","name":"owner","inputs":[],"outputs":[{"name":"","type":"address","internalType":"address"}],"stateMutability":"view"},{"type":"function","name":"setMinter","inputs":[{"name":"_minter","type":"address","internalType":"address"}],"outputs":[],"stateMutability":"nonpayable"},{"type":"function","name":"symbol","inputs":[],"outputs":[{"name":"","type":"string","internalType":"string"}],"stateMutability":"view"},{"type":"function","name":"totalSupply","inputs":[],"outputs":[{"name":"","type":"uint256","internalType":"uint256"}],"stateMutability":"view"},{"type":"function","name":"transfer","inputs":[{"name":"to","type":"address","internalType":"address"},{"name":"amount","type":"uint256","internalType":"uint256"}],"outputs":[{"name":"","type":"bool","internalType":"bool"}],"stateMutability":"nonpayable"},{"type":"function","name":"transferFrom","inputs":[{"name":"from","type":"address","internalType":"address"},{"name":"to","type":"address","internalType":"address"},{"name":"amount","type":"uint256","internalType":"uint256"}],"outputs":[{"name":"","type":"bool","internalType":"bool"}],"stateMutability":"nonpayable"},{"type":"event","name":"Approval","inputs":[{"name":"owner_","type":"address","indexed":true,"internalType":"address"},{"name":"spender","type":"address","indexed":true,"internalType":"address"},{"name":"amount","type":"uint256","indexed":false,"internalType":"uint256"}],"anonymous":false},{"type":"event","name":"Transfer","inputs":[{"name":"from","type":"address","indexed":true,"internalType":"address"},{"name":"to","type":"address","indexed":true,"internalType":"address"},{"name":"amount","type":"uint256","indexed":false,"internalType":"uint256"}],"anonymous":false},{"type":"error","name":"InsufficientAllowance","inputs":[]},{"type":"error","name":"InsufficientBalance","inputs":[]},{"type":"error","name":"NotMinter","inputs":[]},{"type":"error","name":"NotOwner","inputs":[]},{"type":"error","name":"ZeroAddress","inputs":[]}],"bytecode":{"object":"0x60a060405234801561000f575f5ffd5b506040518060400160405280600c81526020016b20a6a6902628102a37b5b2b760a11b815250604051806040016040528060068152602001650414d4d2d4c560d41b8152506012825f90816100649190610144565b5060016100718382610144565b5060ff16608052505060058054336001600160a01b03199182168117909255600680549091169091179055610202565b634e487b7160e01b5f52604160045260245ffd5b600181811c908216806100c957607f821691505b6020821081036100e757634e487b7160e01b5f52602260045260245ffd5b50919050565b601f82111561013f578282111561013f57805f5260205f20601f840160051c602085101561011857505f5b90810190601f840160051c035f5b8181101561013b575f83820155600101610126565b5050505b505050565b81516001600160401b0381111561015d5761015d6100a1565b6101718161016b84546100b5565b846100ed565b6020601f8211600181146101a3575f831561018c5750848201515b5f19600385901b1c1916600184901b1784556101fb565b5f84815260208120601f198516915b828110156101d257878501518255602094850194600190920191016101b2565b50848210156101ef57868401515f19600387901b60f8161c191681555b505060018360011b0184555b5050505050565b608051610a0161021a5f395f61019a0152610a015ff3fe608060405234801561000f575f5ffd5b50600436106100fb575f3560e01c806370a0823111610093578063a9059cbb11610063578063a9059cbb14610243578063c9e2057314610256578063dd62ed3e14610269578063fca3b5aa14610293575f5ffd5b806370a08231146101f65780638da5cb5b1461021557806395d89b411461022857806399bd2ba514610230575f5ffd5b806323b872dd116100ce57806323b872dd14610182578063313ce5671461019557806340c10f19146101ce57806342966c68146101e3575f5ffd5b806306fdde03146100ff578063075461721461011d578063095ea7b31461014857806318160ddd1461016b575b5f5ffd5b6101076102a6565b604051610114919061081f565b60405180910390f35b600654610130906001600160a01b031681565b6040516001600160a01b039091168152602001610114565b61015b61015636600461086f565b610331565b6040519015158152602001610114565b61017460025481565b604051908152602001610114565b61015b610190366004610897565b6103bd565b6101bc7f000000000000000000000000000000000000000000000000000000000000000081565b60405160ff9091168152602001610114565b6101e16101dc36600461086f565b61044d565b005b6101e16101f13660046108d1565b610513565b6101746102043660046108e8565b60036020525f908152604090205481565b600554610130906001600160a01b031681565b6101076105a4565b6101e161023e36600461086f565b6105b1565b61015b61025136600461086f565b6105ea565b6101e161026436600461086f565b6105ff565b610174610277366004610908565b600460209081525f928352604080842090915290825290205481565b6101e16102a13660046108e8565b610634565b5f80546102b290610939565b80601f01602080910402602001604051908101604052809291908181526020018280546102de90610939565b80156103295780601f1061030057610100808354040283529160200191610329565b820191905f5260205f20905b81548152906001019060200180831161030c57829003601f168201915b505050505081565b5f6001600160a01b0383166103595760405163d92e233d60e01b815260040160405180910390fd5b335f8181526004602090815260408083206001600160a01b03881680855290835292819020869055518581529192917f8c5be1e5ebec7d5bd14f71427d1e84f3dd0314c0f7b2291e5b200ac8c7c3b925910160405180910390a35060015b92915050565b6001600160a01b0383165f9081526004602090815260408083203384529091528120545f1981146104375782811015610409576040516313be252b60e01b815260040160405180910390fd5b6104138382610985565b6001600160a01b0386165f9081526004602090815260408083203384529091529020555b610442858585610681565b506001949350505050565b6005546001600160a01b03163314610478576040516330cd747160e01b815260040160405180910390fd5b6001600160a01b03821661049f5760405163d92e233d60e01b815260040160405180910390fd5b8060025f8282546104b09190610998565b90915550506001600160a01b0382165f90815260036020526040812080548392906104dc908490610998565b90915550506040518181526001600160a01b038316905f905f5160206109ac5f395f51905f52906020015b60405180910390a35050565b335f9081526003602052604090205481111561054257604051631e9acf1760e31b815260040160405180910390fd5b335f9081526003602052604081208054839290610560908490610985565b925050819055508060025f8282546105789190610985565b90915550506040518181525f9033905f5160206109ac5f395f51905f529060200160405180910390a350565b600180546102b290610939565b6006546001600160a01b031633146105dc57604051633e34a41b60e21b815260040160405180910390fd5b6105e68282610478565b5050565b5f6105f6338484610681565b50600192915050565b6006546001600160a01b0316331461062a57604051633e34a41b60e21b815260040160405180910390fd5b6105e68282610779565b6005546001600160a01b0316331461065f576040516330cd747160e01b815260040160405180910390fd5b600680546001600160a01b0319166001600160a01b0392909216919091179055565b6001600160a01b0382166106a85760405163d92e233d60e01b815260040160405180910390fd5b6001600160a01b0383165f908152600360205260409020548111156106e057604051631e9acf1760e31b815260040160405180910390fd5b6001600160a01b0383165f9081526003602052604081208054839290610707908490610985565b90915550506001600160a01b0382165f9081526003602052604081208054839290610733908490610998565b92505081905550816001600160a01b0316836001600160a01b03165f5160206109ac5f395f51905f528360405161076c91815260200190565b60405180910390a3505050565b6001600160a01b0382165f908152600360205260409020548111156107b157604051631e9acf1760e31b815260040160405180910390fd5b6001600160a01b0382165f90815260036020526040812080548392906107d8908490610985565b925050819055508060025f8282546107f09190610985565b90915550506040518181525f906001600160a01b038416905f5160206109ac5f395f51905f5290602001610507565b602081525f82518060208401528060208501604085015e5f604082850101526040601f19601f83011684010191505092915050565b80356001600160a01b038116811461086a575f5ffd5b919050565b5f5f60408385031215610880575f5ffd5b61088983610854565b946020939093013593505050565b5f5f5f606084860312156108a9575f5ffd5b6108b284610854565b92506108c060208501610854565b929592945050506040919091013590565b5f602082840312156108e1575f5ffd5b5035919050565b5f602082840312156108f8575f5ffd5b61090182610854565b9392505050565b5f5f60408385031215610919575f5ffd5b61092283610854565b915061093060208401610854565b90509250929050565b600181811c9082168061094d57607f821691505b60208210810361096b57634e487b7160e01b5f52602260045260245ffd5b50919050565b634e487b7160e01b5f52601160045260245ffd5b818103818111156103b7576103b7610971565b808201808211156103b7576103b761097156feddf252ad1be2c89b69c2b068fc378daa952ba7f163c4a11628f55a4df523b3efa26469706673582212203f16fee929c5702a8943c2b877813b78d85d60d2778b99ea8a47a42274da0f9e64736f6c63430008220033","linkReferences":{}},"methodIdentifiers":{"allowance(address,address)":"dd62ed3e","approve(address,uint256)":"095ea7b3","balanceOf(address)":"70a08231","burn(uint256)":"42966c68","burnLP(address,uint256)":"c9e20573","decimals()":"313ce567","mint(address,uint256)":"40c10f19","mintLP(address,uint256)":"99bd2ba5","minter()":"07546172","name()":"06fdde03","owner()":"8da5cb5b","setMinter(address)":"fca3b5aa","symbol()":"95d89b41","totalSupply()":"18160ddd","transfer(address,uint256)":"a9059cbb","transferFrom(address,address,uint256)":"23b872dd"},"id":21}