{"abi":[{"type":"constructor","inputs":[{"name":"_name","type":"string","internalType":"string"},{"name":"_symbol","type":"string","internalType":"string"},{"name":"_decimals","type":"uint8","internalType":"uint8"}],"stateMutability":"nonpayable"},{"type":"function","name":"allowance","inputs":[{"name":"","type":"address","internalType":"address"},{"name":"","type":"address","internalType":"address"}],"outputs":[{"name":"","type":"uint256","internalType":"uint256"}],"stateMutability":"view"},{"type":"function","name":"approve","inputs":[{"name":"spender","type":"address","internalType":"address"},{"name":"amount","type":"uint256","internalType":"uint256"}],"outputs":[{"name":"","type":"bool","internalType":"bool"}],"stateMutability":"nonpayable"},{"type":"function","name":"balanceOf","inputs":[{"name":"","type":"address","internalType":"address"}],"outputs":[{"name":"","type":"uint256","internalType":"uint256"}],"stateMutability":"view"},{"type":"function","name":"burn","inputs":[{"name":"amount","type":"uint256","internalType":"uint256"}],"outputs":[],"stateMutability":"nonpayable"},{"type":"function","name":"decimals","inputs":[],"outputs":[{"name":"","type":"uint8","internalType":"uint8"}],"stateMutability":"view"},{"type":"function","name":"mint","inputs":[{"name":"to","type":"address","internalType":"address"},{"name":"amount","type":"uint256","internalType":"uint256"}],"outputs":[],"stateMutability":"nonpayable"},{"type":"function","name":"name","inputs":[],"outputs":[{"name":"","type":"string","internalType":"string"}],"stateMutability":"view"},{"type":"function","name":"owner","inputs":[],"outputs":[{"name":"","type":"address","internalType":"address"}],"stateMutability":"view"},{"type":"function","name":"symbol","inputs":[],"outputs":[{"name":"","type":"string","internalType":"string"}],"stateMutability":"view"},{"type":"function","name":"totalSupply","inputs":[],"outputs":[{"name":"","type":"uint256","internalType":"uint256"}],"stateMutability":"view"},{"type":"function","name":"transfer","inputs":[{"name":"to","type":"address","internalType":"address"},{"name":"amount","type":"uint256","internalType":"uint256"}],"outputs":[{"name":"","type":"bool","internalType":"bool"}],"stateMutability":"nonpayable"},{"type":"function","name":"transferFrom","inputs":[{"name":"from","type":"address","internalType":"address"},{"name":"to","type":"address","internalType":"address"},{"name":"amount","type":"uint256","internalType":"uint256"}],"outputs":[{"name":"","type":"bool","internalType":"bool"}],"stateMutability":"nonpayable"},{"type":"event","name":"Approval","inputs":[{"name":"owner_","type":"address","indexed":true,"internalType":"address"},{"name":"spender","type":"address","indexed":true,"internalType":"address"},{"name":"amount","type":"uint256","indexed":false,"internalType":"uint256"}],"anonymous":false},{"type":"event","name":"Transfer","inputs":[{"name":"from","type":"address","indexed":true,"internalType":"address"},{"name":"to","type":"address","indexed":true,"internalType":"address"},{"name":"amount","type":"uint256","indexed":false,"internalType":"uint256"}],"anonymous":false},{"type":"error","name":"InsufficientAllowance","inputs":[]},{"type":"error","name":"InsufficientBalance","inputs":[]},{"type":"error","name":"NotOwner","inputs":[]},{"type":"error","name":"ZeroAddress","inputs":[]}],"bytecode":{"object":"0x60a060405234801561000f575f5ffd5b50604051610b07380380610b0783398101604081905261002e91610103565b5f610039848261020f565b506001610046838261020f565b5060ff166080525050600580546001600160a01b031916331790556102cd565b634e487b7160e01b5f52604160045260245ffd5b5f82601f830112610089575f5ffd5b81516001600160401b038111156100a2576100a2610066565b604051601f8201601f19908116603f011681016001600160401b03811182821017156100d0576100d0610066565b6040528181528382016020018510156100e7575f5ffd5b8160208501602083015e5f918101602001919091529392505050565b5f5f5f60608486031215610115575f5ffd5b83516001600160401b0381111561012a575f5ffd5b6101368682870161007a565b602086015190945090506001600160401b03811115610153575f5ffd5b61015f8682870161007a565b925050604084015160ff81168114610175575f5ffd5b809150509250925092565b600181811c9082168061019457607f821691505b6020821081036101b257634e487b7160e01b5f52602260045260245ffd5b50919050565b601f82111561020a578282111561020a57805f5260205f20601f840160051c60208510156101e357505f5b90810190601f840160051c035f5b81811015610206575f838201556001016101f1565b5050505b505050565b81516001600160401b0381111561022857610228610066565b61023c816102368454610180565b846101b8565b6020601f82116001811461026e575f83156102575750848201515b5f19600385901b1c1916600184901b1784556102c6565b5f84815260208120601f198516915b8281101561029d578785015182556020948501946001909201910161027d565b50848210156102ba57868401515f19600387901b60f8161c191681555b505060018360011b0184555b5050505050565b6080516108226102e55f395f61012501526108225ff3fe608060405234801561000f575f5ffd5b50600436106100b1575f3560e01c806342966c681161006e57806342966c681461016e57806370a08231146101815780638da5cb5b146101a057806395d89b41146101cb578063a9059cbb146101d3578063dd62ed3e146101e6575f5ffd5b806306fdde03146100b5578063095ea7b3146100d357806318160ddd146100f657806323b872dd1461010d578063313ce5671461012057806340c10f1914610159575b5f5ffd5b6100bd610210565b6040516100ca9190610660565b60405180910390f35b6100e66100e13660046106b0565b61029b565b60405190151581526020016100ca565b6100ff60025481565b6040519081526020016100ca565b6100e661011b3660046106d8565b610327565b6101477f000000000000000000000000000000000000000000000000000000000000000081565b60405160ff90911681526020016100ca565b61016c6101673660046106b0565b6103b7565b005b61016c61017c366004610712565b61048f565b6100ff61018f366004610729565b60036020525f908152604090205481565b6005546101b3906001600160a01b031681565b6040516001600160a01b0390911681526020016100ca565b6100bd610533565b6100e66101e13660046106b0565b610540565b6100ff6101f4366004610749565b600460209081525f928352604080842090915290825290205481565b5f805461021c9061077a565b80601f01602080910402602001604051908101604052809291908181526020018280546102489061077a565b80156102935780601f1061026a57610100808354040283529160200191610293565b820191905f5260205f20905b81548152906001019060200180831161027657829003601f168201915b505050505081565b5f6001600160a01b0383166102c35760405163d92e233d60e01b815260040160405180910390fd5b335f8181526004602090815260408083206001600160a01b03881680855290835292819020869055518581529192917f8c5be1e5ebec7d5bd14f71427d1e84f3dd0314c0f7b2291e5b200ac8c7c3b925910160405180910390a35060015b92915050565b6001600160a01b0383165f9081526004602090815260408083203384529091528120545f1981146103a15782811015610373576040516313be252b60e01b815260040160405180910390fd5b61037d83826107c6565b6001600160a01b0386165f9081526004602090815260408083203384529091529020555b6103ac858585610555565b506001949350505050565b6005546001600160a01b031633146103e2576040516330cd747160e01b815260040160405180910390fd5b6001600160a01b0382166104095760405163d92e233d60e01b815260040160405180910390fd5b8060025f82825461041a91906107d9565b90915550506001600160a01b0382165f90815260036020526040812080548392906104469084906107d9565b90915550506040518181526001600160a01b038316905f907fddf252ad1be2c89b69c2b068fc378daa952ba7f163c4a11628f55a4df523b3ef9060200160405180910390a35050565b335f908152600360205260409020548111156104be57604051631e9acf1760e31b815260040160405180910390fd5b335f90815260036020526040812080548392906104dc9084906107c6565b925050819055508060025f8282546104f491906107c6565b90915550506040518181525f9033907fddf252ad1be2c89b69c2b068fc378daa952ba7f163c4a11628f55a4df523b3ef9060200160405180910390a350565b6001805461021c9061077a565b5f61054c338484610555565b50600192915050565b6001600160a01b03821661057c5760405163d92e233d60e01b815260040160405180910390fd5b6001600160a01b0383165f908152600360205260409020548111156105b457604051631e9acf1760e31b815260040160405180910390fd5b6001600160a01b0383165f90815260036020526040812080548392906105db9084906107c6565b90915550506001600160a01b0382165f90815260036020526040812080548392906106079084906107d9565b92505081905550816001600160a01b0316836001600160a01b03167fddf252ad1be2c89b69c2b068fc378daa952ba7f163c4a11628f55a4df523b3ef8360405161065391815260200190565b60405180910390a3505050565b602081525f82518060208401528060208501604085015e5f604082850101526040601f19601f83011684010191505092915050565b80356001600160a01b03811681146106ab575f5ffd5b919050565b5f5f604083850312156106c1575f5ffd5b6106ca83610695565b946020939093013593505050565b5f5f5f606084860312156106ea575f5ffd5b6106f384610695565b925061070160208501610695565b929592945050506040919091013590565b5f60208284031215610722575f5ffd5b5035919050565b5f60208284031215610739575f5ffd5b61074282610695565b9392505050565b5f5f6040838503121561075a575f5ffd5b61076383610695565b915061077160208401610695565b90509250929050565b600181811c9082168061078e57607f821691505b6020821081036107ac57634e487b7160e01b5f52602260045260245ffd5b50919050565b634e487b7160e01b5f52601160045260245ffd5b81810381811115610321576103216107b2565b80820180821115610321576103216107b256fea264697066735822122016cd7d256bafeac07d9e99f1fcf8b2d54431c9f74207df6bbb9999db5b29211264736f6c63430008220033","linkReferences":{}},"methodIdentifiers":{"allowance(address,address)":"dd62ed3e","approve(address,uint256)":"095ea7b3","balanceOf(address)":"70a08231","burn(uint256)":"42966c68","decimals()":"313ce567","mint(address,uint256)":"40c10f19","name()":"06fdde03","owner()":"8da5cb5b","symbol()":"95d89b41","totalSupply()":"18160ddd","transfer(address,uint256)":"a9059cbb","transferFrom(address,address,uint256)":"23b872dd"},"id":20}