{"abi":[{"type":"constructor","inputs":[{"name":"_token","type":"address","internalType":"address"}],"stateMutability":"nonpayable"},{"type":"function","name":"BASE_RATE_PER_YEAR","inputs":[],"outputs":[{"name":"","type":"uint256","internalType":"uint256"}],"stateMutability":"view"},{"type":"function","name":"LIQ_BONUS","inputs":[],"outputs":[{"name":"","type":"uint256","internalType":"uint256"}],"stateMutability":"view"},{"type":"function","name":"LIQ_BONUS_DEN","inputs":[],"outputs":[{"name":"","type":"uint256","internalType":"uint256"}],"stateMutability":"view"},{"type":"function","name":"LIQ_THRESHOLD_DEN","inputs":[],"outputs":[{"name":"","type":"uint256","internalType":"uint256"}],"stateMutability":"view"},{"type":"function","name":"LIQ_THRESHOLD_NUM","inputs":[],"outputs":[{"name":"","type":"uint256","internalType":"uint256"}],"stateMutability":"view"},{"type":"function","name":"LTV_DENOMINATOR","inputs":[],"outputs":[{"name":"","type":"uint256","internalType":"uint256"}],"stateMutability":"view"},{"type":"function","name":"LTV_NUMERATOR","inputs":[],"outputs":[{"name":"","type":"uint256","internalType":"uint256"}],"stateMutability":"view"},{"type":"function","name":"PRECISION","inputs":[],"outputs":[{"name":"","type":"uint256","internalType":"uint256"}],"stateMutability":"view"},{"type":"function","name":"SECONDS_PER_YEAR","inputs":[],"outputs":[{"name":"","type":"uint256","internalType":"uint256"}],"stateMutability":"view"},{"type":"function","name":"SLOPE_PER_YEAR","inputs":[],"outputs":[{"name":"","type":"uint256","internalType":"uint256"}],"stateMutability":"view"},{"type":"function","name":"borrow","inputs":[{"name":"amount","type":"uint256","internalType":"uint256"}],"outputs":[],"stateMutability":"nonpayable"},{"type":"function","name":"borrowRatePerYear","inputs":[],"outputs":[{"name":"","type":"uint256","internalType":"uint256"}],"stateMutability":"view"},{"type":"function","name":"deposit","inputs":[{"name":"amount","type":"uint256","internalType":"uint256"}],"outputs":[],"stateMutability":"nonpayable"},{"type":"function","name":"healthFactor","inputs":[{"name":"user","type":"address","internalType":"address"}],"outputs":[{"name":"","type":"uint256","internalType":"uint256"}],"stateMutability":"view"},{"type":"function","name":"liquidate","inputs":[{"name":"borrower","type":"address","internalType":"address"},{"name":"debtAmount","type":"uint256","internalType":"uint256"}],"outputs":[],"stateMutability":"nonpayable"},{"type":"function","name":"pendingInterest","inputs":[{"name":"user","type":"address","internalType":"address"}],"outputs":[{"name":"","type":"uint256","internalType":"uint256"}],"stateMutability":"view"},{"type":"function","name":"positions","inputs":[{"name":"","type":"address","internalType":"address"}],"outputs":[{"name":"deposited","type":"uint256","internalType":"uint256"},{"name":"borrowed","type":"uint256","internalType":"uint256"},{"name":"debtWithInterest","type":"uint256","internalType":"uint256"},{"name":"lastUpdate","type":"uint256","internalType":"uint256"}],"stateMutability":"view"},{"type":"function","name":"repay","inputs":[{"name":"amount","type":"uint256","internalType":"uint256"}],"outputs":[],"stateMutability":"nonpayable"},{"type":"function","name":"token","inputs":[],"outputs":[{"name":"","type":"address","internalType":"contract ERC20Token"}],"stateMutability":"view"},{"type":"function","name":"totalBorrows","inputs":[],"outputs":[{"name":"","type":"uint256","internalType":"uint256"}],"stateMutability":"view"},{"type":"function","name":"totalDeposits","inputs":[],"outputs":[{"name":"","type":"uint256","internalType":"uint256"}],"stateMutability":"view"},{"type":"function","name":"utilisation","inputs":[],"outputs":[{"name":"","type":"uint256","internalType":"uint256"}],"stateMutability":"view"},{"type":"function","name":"withdraw","inputs":[{"name":"amount","type":"uint256","internalType":"uint256"}],"outputs":[],"stateMutability":"nonpayable"},{"type":"event","name":"Borrowed","inputs":[{"name":"user","type":"address","indexed":true,"internalType":"address"},{"name":"amount","type":"uint256","indexed":false,"internalType":"uint256"}],"anonymous":false},{"type":"event","name":"Deposited","inputs":[{"name":"user","type":"address","indexed":true,"internalType":"address"},{"name":"amount","type":"uint256","indexed":false,"internalType":"uint256"}],"anonymous":false},{"type":"event","name":"Liquidated","inputs":[{"name":"liquidator","type":"address","indexed":true,"internalType":"address"},{"name":"borrower","type":"address","indexed":true,"internalType":"address"},{"name":"debtRepaid","type":"uint256","indexed":false,"internalType":"uint256"},{"name":"collateralSeized","type":"uint256","indexed":false,"internalType":"uint256"}],"anonymous":false},{"type":"event","name":"Repaid","inputs":[{"name":"user","type":"address","indexed":true,"internalType":"address"},{"name":"amount","type":"uint256","indexed":false,"internalType":"uint256"},{"name":"remaining","type":"uint256","indexed":false,"internalType":"uint256"}],"anonymous":false},{"type":"event","name":"Withdrawn","inputs":[{"name":"user","type":"address","indexed":true,"internalType":"address"},{"name":"amount","type":"uint256","indexed":false,"internalType":"uint256"}],"anonymous":false},{"type":"error","name":"ExceedsLTV","inputs":[{"name":"requested","type":"uint256","internalType":"uint256"},{"name":"maxBorrow","type":"uint256","internalType":"uint256"}]},{"type":"error","name":"HealthFactorHealthy","inputs":[{"name":"healthFactor","type":"uint256","internalType":"uint256"}]},{"type":"error","name":"HealthFactorTooLow","inputs":[{"name":"healthFactor","type":"uint256","internalType":"uint256"}]},{"type":"error","name":"InsufficientCollateral","inputs":[]},{"type":"error","name":"NothingToWithdraw","inputs":[]},{"type":"error","name":"PoolInsolvent","inputs":[]},{"type":"error","name":"RepaymentExceedsDebt","inputs":[]},{"type":"error","name":"ZeroAmount","inputs":[]}],"bytecode":{"object":"0x60a060405234801561000f575f5ffd5b506040516110d83803806110d883398101604081905261002e9161003f565b6001600160a01b031660805261006c565b5f6020828403121561004f575f5ffd5b81516001600160a01b0381168114610065575f5ffd5b9392505050565b6080516110236100b55f395f81816102b8015281816103f601528181610515015281816107e3015281816109b801528181610ab701528181610c340152610d2a01526110235ff3fe608060405234801561000f575f5ffd5b5060043610610148575f3560e01c806378a1bd44116100bf578063bcbaf48711610079578063bcbaf4871461026c578063c5ebeaec1461027f578063cbd870fc14610292578063da5a39d2146102a0578063e6a69ab8146102a8578063fc0c546a146102b3575f5ffd5b806378a1bd441461022e5780637d8820971461024157806388519a22146102265780638bc1fa2514610226578063aaf5eb681461024a578063b6b55f2514610259575f5ffd5b8063658181d211610110578063658181d2146101ec5780636ad9f9df146101fb57806371f389411461020e57806372f4e7ba146102165780637323d8311461021e578063786af6b514610226575f5ffd5b80632e1a7d4d1461014c578063371fd8e61461016157806347bd37181461017457806353734c381461019057806355f5751014610198575b5f5ffd5b61015f61015a366004610ed4565b6102f2565b005b61015f61016f366004610ed4565b6104a3565b61017d60025481565b6040519081526020015b60405180910390f35b61017d61063d565b6101cc6101a6366004610f06565b5f6020819052908152604090208054600182015460028301546003909301549192909184565b604080519485526020850193909352918301526060820152608001610187565b61017d67027f7d0bdb92000081565b61017d610209366004610f06565b610674565b61017d600581565b61017d605081565b61017d6106b7565b61017d606481565b61017d61023c366004610f06565b6106ff565b61017d60015481565b61017d670de0b6b3a764000081565b61015f610267366004610ed4565b610798565b61015f61027a366004610f1f565b6108c9565b61015f61028d366004610ed4565b610b78565b61017d66470de4df82000081565b61017d604b81565b61017d6301e1338081565b6102da7f000000000000000000000000000000000000000000000000000000000000000081565b6040516001600160a01b039091168152602001610187565b805f0361031257604051631f2a200560e01b815260040160405180910390fd5b61031b33610dcf565b335f908152602081905260409020805482111561034b57604051633a23d82560e01b815260040160405180910390fd5b80545f9061035a908490610f5b565b6002830154909150156103ab575f610376828460020154610e88565b9050670de0b6b3a76400008110156103a95760405163b8dfb2c160e01b8152600481018290526024015b60405180910390fd5b505b82825f015f8282546103bd9190610f5b565b925050819055508260015f8282546103d59190610f5b565b909155505060405163a9059cbb60e01b8152336004820152602481018490527f00000000000000000000000000000000000000000000000000000000000000006001600160a01b03169063a9059cbb906044016020604051808303815f875af1158015610444573d5f5f3e3d5ffd5b505050506040513d601f19601f820116820180604052508101906104689190610f6e565b5060405183815233907f7084f5476618d8e60b11ef0d7d3f06914655adb8793e28ff7f018d4c76d505d59060200160405180910390a2505050565b805f036104c357604051631f2a200560e01b815260040160405180910390fd5b6104cc33610dcf565b335f908152602081905260408120600281015490918184116104ee57836104f0565b815b6040516323b872dd60e01b8152336004820152306024820152604481018290529091507f00000000000000000000000000000000000000000000000000000000000000006001600160a01b0316906323b872dd906064016020604051808303815f875af1158015610563573d5f5f3e3d5ffd5b505050506040513d601f19601f820116820180604052508101906105879190610f6e565b5080836002015f82825461059b9190610f5b565b909155505060018301548110156105ca5780836001015f8282546105bf9190610f5b565b909155506105d19050565b5f60018401555b80600254116105e0575f6105ee565b806002546105ee9190610f5b565b600290815583015460405133917f1b8cd61ed43bec7c6bdad3a18ffee613f99c853d16c50678d248d879e1b434389161062f91858252602082015260400190565b60405180910390a250505050565b5f6001545f0361064c57505f90565b600154670de0b6b3a76400006002546106659190610f8d565b61066f9190610fa4565b905090565b6001600160a01b0381165f9081526020819052604081206002810154820361069f57505f1992915050565b6106b0815f01548260020154610e88565b9392505050565b5f5f6106c161063d565b9050670de0b6b3a76400006106de8267027f7d0bdb920000610f8d565b6106e89190610fa4565b6106f99066470de4df820000610fc3565b91505090565b6001600160a01b0381165f9081526020819052604081206002810154158061072957506003810154155b1561073657505f92915050565b5f8160030154426107479190610f5b565b90505f6107526106b7565b905061076a670de0b6b3a76400006301e13380610f8d565b8282856002015461077b9190610f8d565b6107859190610f8d565b61078f9190610fa4565b95945050505050565b805f036107b857604051631f2a200560e01b815260040160405180910390fd5b6107c133610dcf565b6040516323b872dd60e01b8152336004820152306024820152604481018290527f00000000000000000000000000000000000000000000000000000000000000006001600160a01b0316906323b872dd906064016020604051808303815f875af1158015610831573d5f5f3e3d5ffd5b505050506040513d601f19601f820116820180604052508101906108559190610f6e565b50335f9081526020819052604081208054839290610874908490610fc3565b925050819055508060015f82825461088c9190610fc3565b909155505060405181815233907f2da466a7b24304f47e87fa2e1e5a81b9831ce54fec19055ce277ca2f39ba42c49060200160405180910390a250565b805f036108e957604051631f2a200560e01b815260040160405180910390fd5b6108f282610dcf565b6001600160a01b0382165f9081526020819052604081208054600282015491929161091d9190610e88565b9050670de0b6b3a7640000811061094a57604051636aee5d6160e11b8152600481018290526024016103a0565b5f8260020154841161095c5783610962565b82600201545b90505f6064610972600582610fc3565b61097c9084610f8d565b6109869190610fa4565b8454909150811115610996575082545b6040516323b872dd60e01b8152336004820152306024820152604481018390527f00000000000000000000000000000000000000000000000000000000000000006001600160a01b0316906323b872dd906064016020604051808303815f875af1158015610a06573d5f5f3e3d5ffd5b505050506040513d601f19601f82011682018060405250810190610a2a9190610f6e565b5081846002015f828254610a3e9190610f5b565b90915550508354819085905f90610a56908490610f5b565b90915550506002548210610a6a575f610a78565b81600254610a789190610f5b565b6002556001548110610a8a575f610a98565b80600154610a989190610f5b565b60015560405163a9059cbb60e01b8152336004820152602481018290527f00000000000000000000000000000000000000000000000000000000000000006001600160a01b03169063a9059cbb906044016020604051808303815f875af1158015610b05573d5f5f3e3d5ffd5b505050506040513d601f19601f82011682018060405250810190610b299190610f6e565b5060408051838152602081018390526001600160a01b0388169133917f1f0c6615429d1cdae0dfa233abf91d3b31cdbdd82c8081389832a61e1072f1ea910160405180910390a3505050505050565b805f03610b9857604051631f2a200560e01b815260040160405180910390fd5b610ba133610dcf565b335f9081526020819052604081208054909190606490610bc390604b90610f8d565b610bcd9190610fa4565b90505f838360020154610be09190610fc3565b905081811115610c1d5783836002015483610bfb9190610f5b565b60405163919120fb60e01b8152600481019290925260248201526044016103a0565b6040516370a0823160e01b815230600482015284907f00000000000000000000000000000000000000000000000000000000000000006001600160a01b0316906370a0823190602401602060405180830381865afa158015610c81573d5f5f3e3d5ffd5b505050506040513d601f19601f82011682018060405250810190610ca59190610fd6565b1015610cc457604051635a50f38b60e11b815260040160405180910390fd5b83836001015f828254610cd79190610fc3565b9250508190555083836002015f828254610cf19190610fc3565b925050819055508360025f828254610d099190610fc3565b909155505060405163a9059cbb60e01b8152336004820152602481018590527f00000000000000000000000000000000000000000000000000000000000000006001600160a01b03169063a9059cbb906044016020604051808303815f875af1158015610d78573d5f5f3e3d5ffd5b505050506040513d601f19601f82011682018060405250810190610d9c9190610f6e565b5060405184815233907fac59582e5396aca512fa873a2047e7f4c80f8f55d4a06cb34a78a0187f62719f9060200161062f565b6001600160a01b0381165f9081526020819052604081206003810154909103610dfc574260039091015550565b600281015415610e7e575f816003015442610e179190610f5b565b90505f610e226106b7565b90505f610e3b670de0b6b3a76400006301e13380610f8d565b83838660020154610e4c9190610f8d565b610e569190610f8d565b610e609190610fa4565b905080846002015f828254610e759190610fc3565b90915550505050505b4260039091015550565b5f815f03610e9857505f19610ece565b610ea3606483610f8d565b670de0b6b3a7640000610eb7605086610f8d565b610ec19190610f8d565b610ecb9190610fa4565b90505b92915050565b5f60208284031215610ee4575f5ffd5b5035919050565b80356001600160a01b0381168114610f01575f5ffd5b919050565b5f60208284031215610f16575f5ffd5b610ecb82610eeb565b5f5f60408385031215610f30575f5ffd5b610f3983610eeb565b946020939093013593505050565b634e487b7160e01b5f52601160045260245ffd5b81810381811115610ece57610ece610f47565b5f60208284031215610f7e575f5ffd5b815180151581146106b0575f5ffd5b8082028115828204841417610ece57610ece610f47565b5f82610fbe57634e487b7160e01b5f52601260045260245ffd5b500490565b80820180821115610ece57610ece610f47565b5f60208284031215610fe6575f5ffd5b505191905056fea2646970667358221220ffa62f905af16c03cfca0d9154f1a030bdd495e0f25d21ec2993f6e559af4d6c64736f6c63430008220033","linkReferences":{}},"methodIdentifiers":{"BASE_RATE_PER_YEAR()":"cbd870fc","LIQ_BONUS()":"71f38941","LIQ_BONUS_DEN()":"88519a22","LIQ_THRESHOLD_DEN()":"786af6b5","LIQ_THRESHOLD_NUM()":"72f4e7ba","LTV_DENOMINATOR()":"8bc1fa25","LTV_NUMERATOR()":"da5a39d2","PRECISION()":"aaf5eb68","SECONDS_PER_YEAR()":"e6a69ab8","SLOPE_PER_YEAR()":"658181d2","borrow(uint256)":"c5ebeaec","borrowRatePerYear()":"7323d831","deposit(uint256)":"b6b55f25","healthFactor(address)":"6ad9f9df","liquidate(address,uint256)":"bcbaf487","pendingInterest(address)":"78a1bd44","positions(address)":"55f57510","repay(uint256)":"371fd8e6","token()":"fc0c546a","totalBorrows()":"47bd3718","totalDeposits()":"7d882097","utilisation()":"53734c38","withdraw(uint256)":"2e1a7d4d"},"id":22}