{"abi":[{"type":"constructor","inputs":[{"name":"_tokenA","type":"address","internalType":"address"},{"name":"_tokenB","type":"address","internalType":"address"}],"stateMutability":"nonpayable"},{"type":"function","name":"FEE_DENOMINATOR","inputs":[],"outputs":[{"name":"","type":"uint256","internalType":"uint256"}],"stateMutability":"view"},{"type":"function","name":"FEE_NUMERATOR","inputs":[],"outputs":[{"name":"","type":"uint256","internalType":"uint256"}],"stateMutability":"view"},{"type":"function","name":"addLiquidity","inputs":[{"name":"amountADesired","type":"uint256","internalType":"uint256"},{"name":"amountBDesired","type":"uint256","internalType":"uint256"},{"name":"amountAMin","type":"uint256","internalType":"uint256"},{"name":"amountBMin","type":"uint256","internalType":"uint256"}],"outputs":[{"name":"amountA","type":"uint256","internalType":"uint256"},{"name":"amountB","type":"uint256","internalType":"uint256"},{"name":"liquidity","type":"uint256","internalType":"uint256"}],"stateMutability":"nonpayable"},{"type":"function","name":"getAmountOut","inputs":[{"name":"amountIn","type":"uint256","internalType":"uint256"},{"name":"reserveIn","type":"uint256","internalType":"uint256"},{"name":"reserveOut","type":"uint256","internalType":"uint256"}],"outputs":[{"name":"amountOut","type":"uint256","internalType":"uint256"}],"stateMutability":"pure"},{"type":"function","name":"getK","inputs":[],"outputs":[{"name":"","type":"uint256","internalType":"uint256"}],"stateMutability":"view"},{"type":"function","name":"getPrice","inputs":[],"outputs":[{"name":"","type":"uint256","internalType":"uint256"}],"stateMutability":"view"},{"type":"function","name":"lpToken","inputs":[],"outputs":[{"name":"","type":"address","internalType":"contract LPToken"}],"stateMutability":"view"},{"type":"function","name":"removeLiquidity","inputs":[{"name":"lpAmount","type":"uint256","internalType":"uint256"},{"name":"amountAMin","type":"uint256","internalType":"uint256"},{"name":"amountBMin","type":"uint256","internalType":"uint256"}],"outputs":[{"name":"amountA","type":"uint256","internalType":"uint256"},{"name":"amountB","type":"uint256","internalType":"uint256"}],"stateMutability":"nonpayable"},{"type":"function","name":"reserveA","inputs":[],"outputs":[{"name":"","type":"uint256","internalType":"uint256"}],"stateMutability":"view"},{"type":"function","name":"reserveB","inputs":[],"outputs":[{"name":"","type":"uint256","internalType":"uint256"}],"stateMutability":"view"},{"type":"function","name":"swap","inputs":[{"name":"tokenIn","type":"address","internalType":"address"},{"name":"amountIn","type":"uint256","internalType":"uint256"},{"name":"minAmountOut","type":"uint256","internalType":"uint256"}],"outputs":[{"name":"amountOut","type":"uint256","internalType":"uint256"}],"stateMutability":"nonpayable"},{"type":"function","name":"tokenA","inputs":[],"outputs":[{"name":"","type":"address","internalType":"contract ERC20Token"}],"stateMutability":"view"},{"type":"function","name":"tokenB","inputs":[],"outputs":[{"name":"","type":"address","internalType":"contract ERC20Token"}],"stateMutability":"view"},{"type":"event","name":"LiquidityAdded","inputs":[{"name":"provider","type":"address","indexed":true,"internalType":"address"},{"name":"amountA","type":"uint256","indexed":false,"internalType":"uint256"},{"name":"amountB","type":"uint256","indexed":false,"internalType":"uint256"},{"name":"lpMinted","type":"uint256","indexed":false,"internalType":"uint256"}],"anonymous":false},{"type":"event","name":"LiquidityRemoved","inputs":[{"name":"provider","type":"address","indexed":true,"internalType":"address"},{"name":"amountA","type":"uint256","indexed":false,"internalType":"uint256"},{"name":"amountB","type":"uint256","indexed":false,"internalType":"uint256"},{"name":"lpBurned","type":"uint256","indexed":false,"internalType":"uint256"}],"anonymous":false},{"type":"event","name":"Swap","inputs":[{"name":"trader","type":"address","indexed":true,"internalType":"address"},{"name":"tokenIn","type":"address","indexed":true,"internalType":"address"},{"name":"amountIn","type":"uint256","indexed":false,"internalType":"uint256"},{"name":"amountOut","type":"uint256","indexed":false,"internalType":"uint256"}],"anonymous":false},{"type":"error","name":"InsufficientLPBalance","inputs":[]},{"type":"error","name":"InvalidToken","inputs":[]},{"type":"error","name":"KInvariantViolated","inputs":[]},{"type":"error","name":"SlippageExceeded","inputs":[{"name":"amountOut","type":"uint256","internalType":"uint256"},{"name":"minAmountOut","type":"uint256","internalType":"uint256"}]},{"type":"error","name":"ZeroAmount","inputs":[]},{"type":"error","name":"ZeroLiquidity","inputs":[]}],"bytecode":{"object":"0x60e060405234801561000f575f5ffd5b50604051611f0f380380611f0f83398101604081905261002e916100ed565b6001600160a01b03808316608052811660a05260405161004d906100c5565b604051809103905ff080158015610066573d5f5f3e3d5ffd5b506001600160a01b031660c0819052604051637e51dad560e11b815230600482015263fca3b5aa906024015f604051808303815f87803b1580156100a8575f5ffd5b505af11580156100ba573d5f5f3e3d5ffd5b50505050505061011e565b610c1b806112f483390190565b80516001600160a01b03811681146100e8575f5ffd5b919050565b5f5f604083850312156100fe575f5ffd5b610107836100d2565b9150610115602084016100d2565b90509250929050565b60805160a05160c0516111446101b05f395f8181610172015281816102ec0152818161037f015281816104ab01528181610af701528181610bcf0152610e8601525f818161014b015281816105e201528181610749015281816108f60152610dde01525f818160fa015281816105530152818161070c0152818161079f015281816109b70152610d4901526111445ff3fe608060405234801561000f575f5ffd5b50600436106100cb575f3560e01c8063857620e111610088578063aebf3e4111610063578063aebf3e41146101d7578063d73792a914610205578063dc5fa6c51461020e578063ee39e7a014610216575f5ffd5b8063857620e11461019457806398d5fdca146101bc5780639f1d0f59146101c4575f5ffd5b8063054d50d4146100cf5780630fc63d10146100f557806319e36f3b1461013457806341cd47bf1461013d5780635f64b55b146101465780635fcbd2851461016d575b5f5ffd5b6100e26100dd366004610fcc565b61021e565b6040519081526020015b60405180910390f35b61011c7f000000000000000000000000000000000000000000000000000000000000000081565b6040516001600160a01b0390911681526020016100ec565b6100e260015481565b6100e26103e581565b61011c7f000000000000000000000000000000000000000000000000000000000000000081565b61011c7f000000000000000000000000000000000000000000000000000000000000000081565b6101a76101a2366004610fcc565b6102b3565b604080519283526020830191909152016100ec565b6100e26106a1565b6100e26101d2366004610ff5565b6106e9565b6101ea6101e5366004611032565b610abd565b604080519384526020840192909252908201526060016100ec565b6100e26103e881565b6100e25f5481565b6100e2610f35565b5f835f0361023f57604051631f2a200560e01b815260040160405180910390fd5b82158061024a575081155b1561026857604051630200e8a960e31b815260040160405180910390fd5b5f6102756103e586611075565b90505f6102828483611075565b90505f826102926103e888611075565b61029c919061108c565b90506102a8818361109f565b979650505050505050565b5f5f845f036102d557604051631f2a200560e01b815260040160405180910390fd5b6040516370a0823160e01b815233600482015285907f00000000000000000000000000000000000000000000000000000000000000006001600160a01b0316906370a0823190602401602060405180830381865afa158015610339573d5f5f3e3d5ffd5b505050506040513d601f19601f8201168201806040525081019061035d91906110be565b101561037c576040516384b8f6a160e01b815260040160405180910390fd5b5f7f00000000000000000000000000000000000000000000000000000000000000006001600160a01b03166318160ddd6040518163ffffffff1660e01b8152600401602060405180830381865afa1580156103d9573d5f5f3e3d5ffd5b505050506040513d601f19601f820116820180604052508101906103fd91906110be565b9050805f548761040d9190611075565b610417919061109f565b925080600154876104289190611075565b610432919061109f565b915084831015610464576040516371c4efed60e01b815260048101849052602481018690526044015b60405180910390fd5b8382101561048f576040516371c4efed60e01b8152600481018390526024810185905260440161045b565b60405163c9e2057360e01b8152336004820152602481018790527f00000000000000000000000000000000000000000000000000000000000000006001600160a01b03169063c9e20573906044015f604051808303815f87803b1580156104f4575f5ffd5b505af1158015610506573d5f5f3e3d5ffd5b50505050825f5f82825461051a91906110d5565b925050819055508160015f82825461053291906110d5565b909155505060405163a9059cbb60e01b8152336004820152602481018490527f00000000000000000000000000000000000000000000000000000000000000006001600160a01b03169063a9059cbb906044016020604051808303815f875af11580156105a1573d5f5f3e3d5ffd5b505050506040513d601f19601f820116820180604052508101906105c591906110e8565b5060405163a9059cbb60e01b8152336004820152602481018390527f00000000000000000000000000000000000000000000000000000000000000006001600160a01b03169063a9059cbb906044016020604051808303815f875af1158015610630573d5f5f3e3d5ffd5b505050506040513d601f19601f8201168201806040525081019061065491906110e8565b50604080518481526020810184905290810187905233907f1dc8bb69df2b8e91fbdcbfcf93d951b3f0000f085a95fe3f7946d6161439245d9060600160405180910390a250935093915050565b5f5f545f036106c357604051630200e8a960e31b815260040160405180910390fd5b5f546001546106da90670de0b6b3a7640000611075565b6106e4919061109f565b905090565b5f825f0361070a57604051631f2a200560e01b815260040160405180910390fd5b7f00000000000000000000000000000000000000000000000000000000000000006001600160a01b0316846001600160a01b03161415801561077e57507f00000000000000000000000000000000000000000000000000000000000000006001600160a01b0316846001600160a01b031614155b1561079c5760405163c1ab6dc160e01b815260040160405180910390fd5b5f7f00000000000000000000000000000000000000000000000000000000000000006001600160a01b0316856001600160a01b03161490505f816107e2576001546107e5565b5f545b90505f826107f4575f546107f8565b6001545b905061080586838361021e565b935084841015610832576040516371c4efed60e01b8152600481018590526024810186905260440161045b565b6040516323b872dd60e01b8152336004820152306024820152604481018790526001600160a01b038816906323b872dd906064016020604051808303815f875af1158015610882573d5f5f3e3d5ffd5b505050506040513d601f19601f820116820180604052508101906108a691906110e8565b50821561096e57855f5f8282546108bd919061108c565b925050819055508360015f8282546108d591906110d5565b909155505060405163a9059cbb60e01b8152336004820152602481018590527f00000000000000000000000000000000000000000000000000000000000000006001600160a01b03169063a9059cbb906044016020604051808303815f875af1158015610944573d5f5f3e3d5ffd5b505050506040513d601f19601f8201168201806040525081019061096891906110e8565b50610a2b565b8560015f82825461097f919061108c565b92505081905550835f5f82825461099691906110d5565b909155505060405163a9059cbb60e01b8152336004820152602481018590527f00000000000000000000000000000000000000000000000000000000000000006001600160a01b03169063a9059cbb906044016020604051808303815f875af1158015610a05573d5f5f3e3d5ffd5b505050506040513d601f19601f82011682018060405250810190610a2991906110e8565b505b5f610a368284611075565b90505f6001545f54610a489190611075565b905081811015610a6b57604051630a64faad60e31b815260040160405180910390fd5b60408051898152602081018890526001600160a01b038b169133917ffa2dda1cc1b86e41239702756b13effbc1a092b5c57e3ad320fbe4f3b13fe235910160405180910390a350505050509392505050565b5f8080861580610acb575085155b15610ae957604051631f2a200560e01b815260040160405180910390fd5b5f5f5490505f60015490505f7f00000000000000000000000000000000000000000000000000000000000000006001600160a01b03166318160ddd6040518163ffffffff1660e01b8152600401602060405180830381865afa158015610b51573d5f5f3e3d5ffd5b505050506040513d601f19601f82011682018060405250810190610b7591906110be565b905082158015610b83575081155b15610c33578995508894506103e8610ba3610b9e8789611075565b610f45565b610bad91906110d5565b6040516399bd2ba560e01b815261dead60048201526103e860248201529094507f00000000000000000000000000000000000000000000000000000000000000006001600160a01b0316906399bd2ba5906044015f604051808303815f87803b158015610c18575f5ffd5b505af1158015610c2a573d5f5f3e3d5ffd5b50505050610d07565b5f83610c3f848d611075565b610c49919061109f565b9050898111610c885787811015610c7d576040516371c4efed60e01b8152600481018290526024810189905260440161045b565b8a9650809550610cd1565b5f83610c94868d611075565b610c9e919061109f565b905089811015610ccb576040516371c4efed60e01b815260048101829052602481018b905260440161045b565b96508995505b610d0384610cdf848a611075565b610ce9919061109f565b84610cf4858a611075565b610cfe919061109f565b610fb3565b9450505b835f03610d2757604051630200e8a960e31b815260040160405180910390fd5b6040516323b872dd60e01b8152336004820152306024820152604481018790527f00000000000000000000000000000000000000000000000000000000000000006001600160a01b0316906323b872dd906064016020604051808303815f875af1158015610d97573d5f5f3e3d5ffd5b505050506040513d601f19601f82011682018060405250810190610dbb91906110e8565b506040516323b872dd60e01b8152336004820152306024820152604481018690527f00000000000000000000000000000000000000000000000000000000000000006001600160a01b0316906323b872dd906064016020604051808303815f875af1158015610e2c573d5f5f3e3d5ffd5b505050506040513d601f19601f82011682018060405250810190610e5091906110e8565b50610e5b868461108c565b5f55610e67858361108c565b6001556040516399bd2ba560e01b8152336004820152602481018590527f00000000000000000000000000000000000000000000000000000000000000006001600160a01b0316906399bd2ba5906044015f604051808303815f87803b158015610ecf575f5ffd5b505af1158015610ee1573d5f5f3e3d5ffd5b505060408051898152602081018990529081018790523392507f64b83944e79c3ce8d4c297411de637c3e102d064677aac0c163976ebdcd6f50e915060600160405180910390a25050509450945094915050565b5f6001545f546106e49190611075565b5f6003821115610fa45750805f610f5d60028361109f565b610f6890600161108c565b90505b81811015610f9e57905080600281610f83818661109f565b610f8d919061108c565b610f97919061109f565b9050610f6b565b50919050565b8115610fae575060015b919050565b5f818310610fc15781610fc3565b825b90505b92915050565b5f5f5f60608486031215610fde575f5ffd5b505081359360208301359350604090920135919050565b5f5f5f60608486031215611007575f5ffd5b83356001600160a01b038116811461101d575f5ffd5b95602085013595506040909401359392505050565b5f5f5f5f60808587031215611045575f5ffd5b5050823594602084013594506040840135936060013592509050565b634e487b7160e01b5f52601160045260245ffd5b8082028115828204841417610fc657610fc6611061565b80820180821115610fc657610fc6611061565b5f826110b957634e487b7160e01b5f52601260045260245ffd5b500490565b5f602082840312156110ce575f5ffd5b5051919050565b81810381811115610fc657610fc6611061565b5f602082840312156110f8575f5ffd5b81518015158114611107575f5ffd5b939250505056fea26469706673582212204a6f025178ab7f917d4754d47bbe4f74cfcb0a159e5bd4b048ade889f7f2591064736f6c6343000822003360a060405234801561000f575f5ffd5b506040518060400160405280600c81526020016b20a6a6902628102a37b5b2b760a11b815250604051806040016040528060068152602001650414d4d2d4c560d41b8152506012825f90816100649190610144565b5060016100718382610144565b5060ff16608052505060058054336001600160a01b03199182168117909255600680549091169091179055610202565b634e487b7160e01b5f52604160045260245ffd5b600181811c908216806100c957607f821691505b6020821081036100e757634e487b7160e01b5f52602260045260245ffd5b50919050565b601f82111561013f578282111561013f57805f5260205f20601f840160051c602085101561011857505f5b90810190601f840160051c035f5b8181101561013b575f83820155600101610126565b5050505b505050565b81516001600160401b0381111561015d5761015d6100a1565b6101718161016b84546100b5565b846100ed565b6020601f8211600181146101a3575f831561018c5750848201515b5f19600385901b1c1916600184901b1784556101fb565b5f84815260208120601f198516915b828110156101d257878501518255602094850194600190920191016101b2565b50848210156101ef57868401515f19600387901b60f8161c191681555b505060018360011b0184555b5050505050565b608051610a0161021a5f395f61019a0152610a015ff3fe608060405234801561000f575f5ffd5b50600436106100fb575f3560e01c806370a0823111610093578063a9059cbb11610063578063a9059cbb14610243578063c9e2057314610256578063dd62ed3e14610269578063fca3b5aa14610293575f5ffd5b806370a08231146101f65780638da5cb5b1461021557806395d89b411461022857806399bd2ba514610230575f5ffd5b806323b872dd116100ce57806323b872dd14610182578063313ce5671461019557806340c10f19146101ce57806342966c68146101e3575f5ffd5b806306fdde03146100ff578063075461721461011d578063095ea7b31461014857806318160ddd1461016b575b5f5ffd5b6101076102a6565b604051610114919061081f565b60405180910390f35b600654610130906001600160a01b031681565b6040516001600160a01b039091168152602001610114565b61015b61015636600461086f565b610331565b6040519015158152602001610114565b61017460025481565b604051908152602001610114565b61015b610190366004610897565b6103bd565b6101bc7f000000000000000000000000000000000000000000000000000000000000000081565b60405160ff9091168152602001610114565b6101e16101dc36600461086f565b61044d565b005b6101e16101f13660046108d1565b610513565b6101746102043660046108e8565b60036020525f908152604090205481565b600554610130906001600160a01b031681565b6101076105a4565b6101e161023e36600461086f565b6105b1565b61015b61025136600461086f565b6105ea565b6101e161026436600461086f565b6105ff565b610174610277366004610908565b600460209081525f928352604080842090915290825290205481565b6101e16102a13660046108e8565b610634565b5f80546102b290610939565b80601f01602080910402602001604051908101604052809291908181526020018280546102de90610939565b80156103295780601f1061030057610100808354040283529160200191610329565b820191905f5260205f20905b81548152906001019060200180831161030c57829003601f168201915b505050505081565b5f6001600160a01b0383166103595760405163d92e233d60e01b815260040160405180910390fd5b335f8181526004602090815260408083206001600160a01b03881680855290835292819020869055518581529192917f8c5be1e5ebec7d5bd14f71427d1e84f3dd0314c0f7b2291e5b200ac8c7c3b925910160405180910390a35060015b92915050565b6001600160a01b0383165f9081526004602090815260408083203384529091528120545f1981146104375782811015610409576040516313be252b60e01b815260040160405180910390fd5b6104138382610985565b6001600160a01b0386165f9081526004602090815260408083203384529091529020555b610442858585610681565b506001949350505050565b6005546001600160a01b03163314610478576040516330cd747160e01b815260040160405180910390fd5b6001600160a01b03821661049f5760405163d92e233d60e01b815260040160405180910390fd5b8060025f8282546104b09190610998565b90915550506001600160a01b0382165f90815260036020526040812080548392906104dc908490610998565b90915550506040518181526001600160a01b038316905f905f5160206109ac5f395f51905f52906020015b60405180910390a35050565b335f9081526003602052604090205481111561054257604051631e9acf1760e31b815260040160405180910390fd5b335f9081526003602052604081208054839290610560908490610985565b925050819055508060025f8282546105789190610985565b90915550506040518181525f9033905f5160206109ac5f395f51905f529060200160405180910390a350565b600180546102b290610939565b6006546001600160a01b031633146105dc57604051633e34a41b60e21b815260040160405180910390fd5b6105e68282610478565b5050565b5f6105f6338484610681565b50600192915050565b6006546001600160a01b0316331461062a57604051633e34a41b60e21b815260040160405180910390fd5b6105e68282610779565b6005546001600160a01b0316331461065f576040516330cd747160e01b815260040160405180910390fd5b600680546001600160a01b0319166001600160a01b0392909216919091179055565b6001600160a01b0382166106a85760405163d92e233d60e01b815260040160405180910390fd5b6001600160a01b0383165f908152600360205260409020548111156106e057604051631e9acf1760e31b815260040160405180910390fd5b6001600160a01b0383165f9081526003602052604081208054839290610707908490610985565b90915550506001600160a01b0382165f9081526003602052604081208054839290610733908490610998565b92505081905550816001600160a01b0316836001600160a01b03165f5160206109ac5f395f51905f528360405161076c91815260200190565b60405180910390a3505050565b6001600160a01b0382165f908152600360205260409020548111156107b157604051631e9acf1760e31b815260040160405180910390fd5b6001600160a01b0382165f90815260036020526040812080548392906107d8908490610985565b925050819055508060025f8282546107f09190610985565b90915550506040518181525f906001600160a01b038416905f5160206109ac5f395f51905f5290602001610507565b602081525f82518060208401528060208501604085015e5f604082850101526040601f19601f83011684010191505092915050565b80356001600160a01b038116811461086a575f5ffd5b919050565b5f5f60408385031215610880575f5ffd5b61088983610854565b946020939093013593505050565b5f5f5f606084860312156108a9575f5ffd5b6108b284610854565b92506108c060208501610854565b929592945050506040919091013590565b5f602082840312156108e1575f5ffd5b5035919050565b5f602082840312156108f8575f5ffd5b61090182610854565b9392505050565b5f5f60408385031215610919575f5ffd5b61092283610854565b915061093060208401610854565b90509250929050565b600181811c9082168061094d57607f821691505b60208210810361096b57634e487b7160e01b5f52602260045260245ffd5b50919050565b634e487b7160e01b5f52601160045260245ffd5b818103818111156103b7576103b7610971565b808201808211156103b7576103b761097156feddf252ad1be2c89b69c2b068fc378daa952ba7f163c4a11628f55a4df523b3efa26469706673582212203f16fee929c5702a8943c2b877813b78d85d60d2778b99ea8a47a42274da0f9e64736f6c63430008220033","linkReferences":{}},"methodIdentifiers":{"FEE_DENOMINATOR()":"d73792a9","FEE_NUMERATOR()":"41cd47bf","addLiquidity(uint256,uint256,uint256,uint256)":"aebf3e41","getAmountOut(uint256,uint256,uint256)":"054d50d4","getK()":"ee39e7a0","getPrice()":"98d5fdca","lpToken()":"5fcbd285","removeLiquidity(uint256,uint256,uint256)":"857620e1","reserveA()":"dc5fa6c5","reserveB()":"19e36f3b","swap(address,uint256,uint256)":"9f1d0f59","tokenA()":"0fc63d10","tokenB()":"5f64b55b"},"id":19}